{
  "contractName": "notas",
  "abi": [
    {
      "inputs": [],
      "stateMutability": "nonpayable",
      "type": "constructor"
    },
    {
      "anonymous": false,
      "inputs": [
        {
          "indexed": false,
          "internalType": "bytes32",
          "name": "",
          "type": "bytes32"
        }
      ],
      "name": "alumno_evaluado",
      "type": "event"
    },
    {
      "anonymous": false,
      "inputs": [
        {
          "indexed": false,
          "internalType": "string",
          "name": "",
          "type": "string"
        }
      ],
      "name": "evento_revision",
      "type": "event"
    },
    {
      "inputs": [],
      "name": "profesor",
      "outputs": [
        {
          "internalType": "address",
          "name": "",
          "type": "address"
        }
      ],
      "stateMutability": "view",
      "type": "function",
      "constant": true
    },
    {
      "inputs": [
        {
          "internalType": "string",
          "name": "_asignatura",
          "type": "string"
        },
        {
          "internalType": "string",
          "name": "_idAlumno",
          "type": "string"
        },
        {
          "internalType": "uint256",
          "name": "_nota",
          "type": "uint256"
        }
      ],
      "name": "Evaluar",
      "outputs": [],
      "stateMutability": "nonpayable",
      "type": "function"
    },
    {
      "inputs": [
        {
          "internalType": "string",
          "name": "_asignatura",
          "type": "string"
        },
        {
          "internalType": "string",
          "name": "_idAlumno",
          "type": "string"
        }
      ],
      "name": "VerNotas",
      "outputs": [
        {
          "internalType": "uint256",
          "name": "",
          "type": "uint256"
        }
      ],
      "stateMutability": "view",
      "type": "function",
      "constant": true
    },
    {
      "inputs": [
        {
          "internalType": "string",
          "name": "_asignatura",
          "type": "string"
        },
        {
          "internalType": "string",
          "name": "_idAlumno",
          "type": "string"
        }
      ],
      "name": "Revision",
      "outputs": [],
      "stateMutability": "nonpayable",
      "type": "function"
    },
    {
      "inputs": [
        {
          "internalType": "string",
          "name": "_asignatura",
          "type": "string"
        }
      ],
      "name": "VerRevisiones",
      "outputs": [
        {
          "internalType": "string[]",
          "name": "",
          "type": "string[]"
        }
      ],
      "stateMutability": "view",
      "type": "function",
      "constant": true
    }
  ],
  "bytecode": "0x608060405234801561001057600080fd5b50336000806101000a81548173ffffffffffffffffffffffffffffffffffffffff021916908373ffffffffffffffffffffffffffffffffffffffff160217905550610b6a806100606000396000f3fe608060405234801561001057600080fd5b50600436106100575760003560e01c8063303622241461005c578063593cbcf01461008c57806395bb498f146100a8578063df096576146100d8578063df3bba9f146100f6575b600080fd5b610076600480360361007191908101906105d4565b610112565b6040516100839190610915565b60405180910390f35b6100a660048036036100a19190810190610681565b6102aa565b005b6100c260048036036100bd9190810190610615565b6103bd565b6040516100cf9190610994565b60405180910390f35b6100e061040e565b6040516100ed91906108fa565b60405180910390f35b610110600480360361010b9190810190610615565b610433565b005b6060336000809054906101000a900473ffffffffffffffffffffffffffffffffffffffff1673ffffffffffffffffffffffffffffffffffffffff168173ffffffffffffffffffffffffffffffffffffffff16146101a4576040517f08c379a000000000000000000000000000000000000000000000000000000000815260040161019b90610974565b60405180910390fd5b6002836040516101b491906108bf565b9081526020016040518091039020805480602002602001604051908101604052809291908181526020016000905b8282101561029e578382906000526020600020018054600181600116156101000203166002900480601f01602080910402602001604051908101604052809291908181526020018280546001816001161561010002031660029004801561028a5780601f1061025f5761010080835404028352916020019161028a565b820191906000526020600020905b81548152906001019060200180831161026d57829003601f168201915b5050505050815260200190600101906101e2565b50505050915050919050565b336000809054906101000a900473ffffffffffffffffffffffffffffffffffffffff1673ffffffffffffffffffffffffffffffffffffffff168173ffffffffffffffffffffffffffffffffffffffff161461033a576040517f08c379a000000000000000000000000000000000000000000000000000000000815260040161033190610974565b60405180910390fd5b6000848460405160200161034f9291906108d6565b6040516020818303038152906040528051906020012090508260016000838152602001908152602001600020819055507f9129eeeb684507aca017f10030b70e5bf86d129f417fcc5840348a957eb12cee816040516103ae9190610937565b60405180910390a15050505050565b60008083836040516020016103d39291906108d6565b604051602081830303815290604052805190602001209050600060016000838152602001908152602001600020549050809250505092915050565b6000809054906101000a900473ffffffffffffffffffffffffffffffffffffffff1681565b60028260405161044391906108bf565b90815260200160405180910390208190806001815401808255809150506001900390600052602060002001600090919091909150908051906020019061048a9291906104c6565b507fafd73f39162aa4c0421f362f3a3d26f44b23c73253256cfc1c68794b0973e0a0816040516104ba9190610952565b60405180910390a15050565b828054600181600116156101000203166002900490600052602060002090601f016020900481019282601f1061050757805160ff1916838001178555610535565b82800160010185558215610535579182015b82811115610534578251825591602001919060010190610519565b5b5090506105429190610546565b5090565b61056891905b8082111561056457600081600090555060010161054c565b5090565b90565b600082601f83011261057c57600080fd5b813561058f61058a826109dc565b6109af565b915080825260208301602083018583830111156105ab57600080fd5b6105b6838284610aca565b50505092915050565b6000813590506105ce81610b1d565b92915050565b6000602082840312156105e657600080fd5b600082013567ffffffffffffffff81111561060057600080fd5b61060c8482850161056b565b91505092915050565b6000806040838503121561062857600080fd5b600083013567ffffffffffffffff81111561064257600080fd5b61064e8582860161056b565b925050602083013567ffffffffffffffff81111561066b57600080fd5b6106778582860161056b565b9150509250929050565b60008060006060848603121561069657600080fd5b600084013567ffffffffffffffff8111156106b057600080fd5b6106bc8682870161056b565b935050602084013567ffffffffffffffff8111156106d957600080fd5b6106e58682870161056b565b92505060406106f6868287016105bf565b9150509250925092565b600061070c8383610811565b905092915050565b61071d81610a84565b82525050565b600061072e82610a18565b6107388185610a46565b93508360208202850161074a85610a08565b8060005b8581101561078657848403895281516107678582610700565b945061077283610a39565b925060208a0199505060018101905061074e565b50829750879550505050505092915050565b6107a181610a96565b82525050565b60006107b282610a2e565b6107bc8185610a68565b93506107cc818560208601610ad9565b6107d581610b0c565b840191505092915050565b60006107eb82610a2e565b6107f58185610a79565b9350610805818560208601610ad9565b80840191505092915050565b600061081c82610a23565b6108268185610a57565b9350610836818560208601610ad9565b61083f81610b0c565b840191505092915050565b6000610857602e83610a68565b91507f4e6f207469656e6573207065726d69736f73207061726120656a65637574617260008301527f20657374612066756e63696f6e2e0000000000000000000000000000000000006020830152604082019050919050565b6108b981610ac0565b82525050565b60006108cb82846107e0565b915081905092915050565b60006108e282856107e0565b91506108ee82846107e0565b91508190509392505050565b600060208201905061090f6000830184610714565b92915050565b6000602082019050818103600083015261092f8184610723565b905092915050565b600060208201905061094c6000830184610798565b92915050565b6000602082019050818103600083015261096c81846107a7565b905092915050565b6000602082019050818103600083015261098d8161084a565b9050919050565b60006020820190506109a960008301846108b0565b92915050565b6000604051905081810181811067ffffffffffffffff821117156109d257600080fd5b8060405250919050565b600067ffffffffffffffff8211156109f357600080fd5b601f19601f8301169050602081019050919050565b6000819050602082019050919050565b600081519050919050565b600081519050919050565b600081519050919050565b6000602082019050919050565b600082825260208201905092915050565b600082825260208201905092915050565b600082825260208201905092915050565b600081905092915050565b6000610a8f82610aa0565b9050919050565b6000819050919050565b600073ffffffffffffffffffffffffffffffffffffffff82169050919050565b6000819050919050565b82818337600083830152505050565b60005b83811015610af7578082015181840152602081019050610adc565b83811115610b06576000848401525b50505050565b6000601f19601f8301169050919050565b610b2681610ac0565b8114610b3157600080fd5b5056fea264697066735822122012379ca8f357b735caba8a3be9450551c13e700afc337490c7e85607b9a604e964736f6c63430006010033",
  "source": "// SPDX-License-Identifier: MIT\n//Indicar la version\npragma solidity >=0.4.4 <0.9.0;\npragma experimental ABIEncoderV2;\n\n// -----------------------------------\n//  ALUMNO   |    ID    |      NOTA\n// -----------------------------------\n//  Marcos |    77755N    |      5\n//  Joan   |    12345X    |      9\n//  Maria  |    02468T    |      2\n//  Marta  |    13579U    |      3\n//  Alba   |    98765Z    |      5\n\ncontract notas {\n    // Direccion del profesor\n    address public profesor;\n\n    // Constructor\n    constructor() public {\n        profesor = msg.sender;\n    }\n\n    // Mapping para relacionar el hash de la identidad del alumno con su nota del examen\n    mapping(bytes32 => uint256) Notas;\n\n    // Mapping de los alumnos de pidan revisiones de examen para una asignatura\n    mapping(string => string[]) revisiones;\n\n    // Eventos\n    event alumno_evaluado(bytes32);\n    event evento_revision(string);\n\n    // Funcion para evaluar a alumnos\n    function Evaluar(\n        string memory _asignatura,\n        string memory _idAlumno,\n        uint256 _nota\n    ) public UnicamenteProfesor(msg.sender) {\n        // Hash de la identificacion del alumno\n        bytes32 hash_idAlumno = keccak256(\n            abi.encodePacked(_asignatura, _idAlumno)\n        );\n        // Relacion entre el hash de la identificacion del alumno y su nota\n        Notas[hash_idAlumno] = _nota;\n        // Emision del evento\n        emit alumno_evaluado(hash_idAlumno);\n    }\n\n    // Control de las funciones ejecutables por el profesor\n    modifier UnicamenteProfesor(address _direccion) {\n        // Requiere que la direccion introducido por parametro sea igual al owner del contrato\n        require(\n            _direccion == profesor,\n            \"No tienes permisos para ejecutar esta funcion.\"\n        );\n        _;\n    }\n\n    // Funcion para ver las notas de un alumno\n    function VerNotas(string memory _asignatura, string memory _idAlumno)\n        public\n        view\n        returns (uint256)\n    {\n        // Hash de la identificacion del alumno\n        bytes32 hash_idAlumno = keccak256(\n            abi.encodePacked(_asignatura, _idAlumno)\n        );\n        // Nota asociada al hash del alumno\n        uint256 nota_alumno = Notas[hash_idAlumno];\n        // Visualizar la nota\n        return nota_alumno;\n    }\n\n    // Funcion para pedir una revision del examen\n    function Revision(string memory _asignatura, string memory _idAlumno)\n        public\n    {\n        // Almacenamiento de la identidad del alumno en un array\n        revisiones[_asignatura].push(_idAlumno);\n        // Emision del evento\n        emit evento_revision(_idAlumno);\n    }\n\n    // Funcion para ver los alumnos que han solicitado revision de examen\n    function VerRevisiones(string memory _asignatura)\n        public\n        view\n        UnicamenteProfesor(msg.sender)\n        returns (string[] memory)\n    {\n        // Devolver las identidades de los alumnos\n        return revisiones[_asignatura];\n    }\n}\n",
  "sourcePath": "/Users/pablofelipe/Solidity/truffle/contracts/notas.sol",
  "compiler": {
    "name": "solc",
    "version": "0.6.1+commit.e6f7d5a4.Emscripten.clang"
  },
  "schemaVersion": "3.2.3",
  "updatedAt": "2022-02-15T16:57:56.931Z",
  "networkType": "ethereum",
  "devdoc": {
    "methods": {}
  },
  "userdoc": {
    "methods": {}
  }
}